:040000000128F32FB1
:100C7800640080010131890B3D2E0034F300F2013C
:100C8800572E730886008701010823009A00013057
:100C9800F1007108F3079E1C522E532E4F2E01307F
:100CA800F1007108F20770087202031C5C2E5D2EB9
:100CB800452E0800F6007E302000C2004208AE0033
:100CC800FF30C2004208AF000630C2004208B00040
:100CD8007608C2004208B100B2017408C200420896
:100CE800B3007508C2004208B4002F08C200C3014F
:100CF800C209C309C20A0319C30A4308C500300858
:100D08004202C400031CC5034508C7003108440259
:100D1800C600031CC7034708C90032084602C800BA
:100D2800031CC9034908CB0033084802CA00031C46
:100D3800CB034B08CD0034084A02CC00031CCD037A
:100D48004C08013EF70000304D3DF8007708FF3EA3
:100D5800F700FF30783DF8007808C2004208B50077
:100D68007708C2004208B600EF30C2004208B70058
:100D78000A30C2004208F0002E3086314226863101
:100D8800080021000C110C108C128C140C16230076
:100D98008C100C1021001D0883390C389D001D147F
:100DA80003309E0422001708FC3902389700971771
:100DB80023001E159E169D179F159C010C309B0045
:100DC8000230FA004530F900AA30890BE92EF90BF8
:100DD800E92EFA0BE92EF4011030F9007908F50034
:100DE800063086315E2686312130F9007630890B4F
:100DF800FB2EF90BFB2E0032F401F501F50A113038
:100E080086315E2686315230F9002A30890B0A2F46
:100E1800F90B0A2FF4011030F9007908F5000630B3
:100E280086315E26863100302000A3000030A20003
:100E38000030A1000030A00001302000A4070030DD
:100E4800A53D0030A63D0030A73DA71B392F270838
:100E5800031D3A2F2608031D3A2F2508031D3A2F94
:100E680065302402031C392F3A2FED2F21009D14E1
:100E78009D183F2F402F3C2F7D301C020318452F13
:100E8800462F482FFD01FD0A93301C02031C4D2FED
:100E98004E2F4F2FFD01A0301C020318542F552F41
:100EA800572F22008C169F3021001C02031C5D2F37
:100EB8005E2F602F22008C1220008C1C642F652F5F
:100EC8006D2F0130A0070030A13D0030A23D003059
:100ED800A33DA31B7D2F2308031D7E2F2208031D7E
:100EE8007E2F2108031D7E2F1E302002031C7D2F1C
:100EF8007E2F8D2F14302000A8000030A900FC019F
:100F0800FC0AFF30A300FF30A200FF30A100EC3044
:100F1800A0002000280829040319932F942F982F44
:100F28000130A8020030A93B28082904031D9D2F81
:100F38009E2F9F2FFC017C08031DA32FA42FA92FF0
:100F48007D080319A82FA92FAE2F22000C15FB012D
:100F5800FB0AE42F22000C117B080319B42FB52FCC
:100F6800E42F5230F9002A30890BB82FF90BB82F2B
:100F7800F4011030F9007908F500063086315E2654
:100F880086315230F9002A30890BC82FF90BC82F47
:100F9800F401F501F50A113086315E2686315230AA
:100FA800F9002A30890BD62FF90BD62FF40110300F
:100FB800F9007908F500063086315E268631FB0196
:100FC80000302000A7000030A6000030A500003047
:100FD800A4002930890BEE2F0032202F0128FB01B5
:100FE800FC01FD012030840000308500223086316C
:080FF8003C2687312000C52EC4
:020000040001F9
:08000000FF3FFF3FFF3FFF3F00
:04000E00E439FF3E94
:00000001FF
