:040000000128FC2FA8
:100F900021000C110C168C161D0883390C389D008D
:100FA0001D1403309E0422001708FC3902389700F4
:100FB00097170130F0070030F13D003071026530C5
:100FC00003197002031CE52FE62FF62FF001F10143
:100FD000813021001C02031CEE2FEF2FF22F220084
:100FE0000C15F42F22000C1121009D142930890BBF
:100FF000F72F0032D92F0128F001F1012000C82F6E
:020000040001F9
:08000000FF3FFF3FFF3FFF3F00
:04000E00E439FF3E94
:00000001FF
