:02000000B52821
:100008007E1480312000911C0A280B28B328013067
:10001800A0070030A13D0030A23D0030A33D2308D9
:10002800031D21282208031D2128233020021E3009
:10003800213B031C20282128302814302000B00040
:100048000030B100B801B80A0030A3000030A200A7
:100058000030A1000030A00020003908031D352819
:100068003628B12821001D08833904389D009D14C5
:100078009D183F2840283C281C08F900FA017908F7
:10008800FC007A08FD007D08FA007C08F900F935C3
:10009800FA0DF935FA0D7908FC007A08FD001B08FD
:1000A800F9000630F936890B562879080339FA0021
:1000B800FB017A08FC047B08FD047C082000E307A8
:1000C8007D08E43D0030E53DE63D0130F900790862
:1000D800B6071E303602031C72287328B128003078
:1000E800F3000030F2000030F1001E30F000660826
:1000F800F7006508F6006408F5006308F40082312B
:100108004D22803173082000E6007208E50071086E
:10011800E4007008E300E61BA0286608031D9F287A
:100128006508031D9F286408031D9F280A30630281
:1001380003189F28A028A72814302000B0000030FA
:10014800B100B801B80A2000B6010030E60000305E
:10015800E5000030E4000030E3009A0191107E10C1
:100168000900B62883316A238031E30083316B2389
:100178008031E40083316C238031E50083316D23C5
:100188008031E6002030840000308500263083313D
:10019800642380317E102000D12821000C110C101E
:1001A8008C128C140C1623008C140C1021001D14B6
:1001B80003309E0422001708FC390238970097176D
:1001C80023001E159E169D179F159C010C309B0041
:1001D8008B170B1720009110210091140330200079
:1001E8009C0478309C041C15FF309B0002302000D2
:1001F800E2004530E100A930890B0029E10B002914
:10020800E20B002900322000D0011130E100610822
:10021800D10006308231DD22803102302000E20038
:100228004530E100A930890B1729E10B1729E20BAA
:10023800172900322000D001D101D10A11308231B2
:10024800DD22803102302000E2004530E100A93093
:10025800890B2C29E10B2C29E20B2C2900322000D8
:10026800D0011130E1006108D10006308231DD2271
:10027800803100302000AB000030AA000030A90017
:100288000030A80001302000AC070030AD3D003040
:10029800AE3D0030AF3D0130A4070030A53D003031
:1002A800A63D0030A73DA71B66292708031D67291F
:1002B8002608031D672961302402EA30253B031C08
:1002C80066296729872902302000E2004530E100CD
:1002D800A930890B6D29E10B6D29E20B6D290032DC
:1002E8002000D0011130E1006108D10006308231D0
:1002F800DD22803100302000A7000030A600003049
:10030800A5000030A4002000AF1B98292F08031D6A
:1003180099292E08031D99292D08031D992965304F
:100328002C02031C98299929472A21001D08833982
:100338000C389D009D149D18A229A3299F297D3062
:100348001C020318A829A929AC292000B901B90A57
:10035800933021001C02031CB229B329B5292000BF
:10036800B901A03021001C020318BB29BC29BE29F1
:1003780022008C169F3021001C02031CC429C529A9
:10038800C72922008C122000300831040319CD2916
:10039800CE29D2290130B0020030B13B30083104F7
:1003A800031DD729D829D929B8013808031DDD2903
:1003B800DE29E32939080319E229E329ED29220076
:1003C8000C152000B701B70A21000C1423009D1357
:1003D8003E2A22000C1121000C1023009D1720003A
:1003E80037080319F829F9293E2A02302000E200CB
:1003F8004530E100A930890BFF29E10BFF29E20B09
:10040800FF2900322000D0011130E1006108D1003D
:1004180006308231DD22803102302000E200453092
:10042800E100A930890B162AE10B162AE20B162ADD
:1004380000322000D001D101D10A11308231DD22F1
:10044800803102302000E2004530E100A930890BFC
:100458002B2AE10B2B2AE20B2B2A00322000D00199
:100468001130E1006108D10006308231DD2280318F
:100478002000B70100302000AF000030AE0000308F
:10048800AD000030AC002930890B482A00324629DB
:10049800B5282000C701F31F522A532A602AF00901
:1004A800F109F209F309F00A0319F10A0319F20A2A
:1004B8000319F30AC701C70AF71F632A642A732AB4
:1004C800F409F509F609F709F40A0319F50A0319F5
:1004D800F60A0319F70A0130F8007808C706003051
:1004E800CB000030CA000030C9000030C8007308D3
:1004F8007204710470040319822A832AC42AC6016B
:10050800C60A912A0130F035F10DF20DF30D890B71
:10051800872A0130F8007808C607F31F942A952A1D
:10052800862A0130C835C90DCA0DCB0D890B962A0C
:1005380073087702031DAA2A72087602031DAA2AE5
:1005480071087502031DAA2A70087402031CAD2ADB
:10055800AE2AB72A7008F4027108F53B7208F63B18
:100568007308F73B48140130F336F20CF10CF00C29
:10057800890BB82A0130C602031DC32AC42A952A4A
:1005880047080319C82AC92AD42AC809C909CA099F
:10059800CB09C80A0319C90A0319CA0A0319CB0ADD
:1005A8004B08F3004A08F2004908F1004808F00037
:1005B80008002000DE007E30D2005208BA00FF306A
:1005C800D2005208BB000630D2005208BC005E08B8
:1005D800D2005208BD00BE015008D2005208BF0028
:1005E8005108D2005208C0003B08D200D301D209FA
:1005F800D309D20A0319D30A5308D5003C0852027A
:10060800D400031CD5035508D7003D085402D60072
:10061800031CD7035708D9003E085602D800031C0C
:10062800D9035908DB003F085802DA00031CDB0332
:100638005B08DD0040085A02DC00031CDD035C088F
:10064800013EDF0000305D3DE0005F08FF3EDF0057
:10065800FF30603DE0006008D2005208C1005F082A
:10066800D2005208C200EF30D2005208C3000A304C
:10067800D2005208CC003A3083314423823108003A
:100688002000CF00CE015D2B4F08860087010108AE
:1006980023009A0001302000CD004D08CF07230029
:1006A8009E1C572B582B532B01302000CD004D0892
:1006B800CE074C084E02031C622B632B482B080004
:1006C800640080010131890B652B0034FF34FF344D
:0406D80000340034B6
:020000040001F9
:08000000FF3FFF3FFF3FFF3F00
:04000E00E439FF3E94
:00000001FF
